:100000000C9434000C9446000C9446000C9446006A
:100010000C9446000C9446000C9446000C94460048
:100020000C9446000C9446000C9446000C94460038
:100030000C9446000C9446000C94AB000C944600C3
:100040000C9446000C9446000C9446000C94460018
:100050000C9446000C9446000C9446000C94460008
:100060000C9446000C94460011241FBECFEFD8E03C
:10007000DEBFCDBF11E0A0E0B1E001C01D92A7300E
:10008000B107E1F70E9419010C942B010C940000B8
:100090009093C5008093C40086E08093C20088E9F5
:1000A0008093C10008959091C00095FFFCCF80938C
:1000B000C6000895CF93DF93EC018991882319F04E
:1000C0000E945300FACFDF91CF910895CF93809192
:1000D000C00087FFFCCFC091C600CD3011F48AE08C
:1000E00001C08C2F0E9453008C2FCF910895EF9266
:1000F000FF920F931F93CF93DF938C01C0E0D0E06A
:1001000078010E946600F80181938F018D3019F407
:10011000F701108204C02196C436D10589F7DF911A
:10012000CF911F910F91FF90EF9008958FEF87B9B6
:1001300018B814B88CE090E00E94480082E084BDBA
:1001400093E095BD16BC9FE097BD80936E007894B8
:1001500080E090E008951F920F920FB60F92112445
:100160002F933F938F939F93809105019091060168
:100170000A9744F0109206011092050110920301B3
:100180001092020180910501909106018A3091053B
:100190000CF5189B0AC020910201309103012F5FDA
:1001A0003F4F30930301209302018930910591F470
:1001B0002091020130910301263031053CF021E00D
:1001C00030E0309301012093000104C0109201013E
:1001D00010920001019690930601809305019F9172
:1001E0008F913F912F910F900FBE0F901F901895F8
:1001F00080910001909101018230910584F4209159
:100200000401220F330B822B8093040182E090E0E3
:10021000909301018093000180E090E0089581E0D7
:1002200090E00895809104010E94530080E090E0E6
:1002300008952FE38DE093E0215080409040E1F756
:1002400000C000000E9496000E94F800892BE1F790
:0A0250000E941201F9CFF894FFCFCD
:00000001FF
