:100000000C9434000C943E000C943E000C943E0082
:100010000C943E000C943E000C943E000C943E0068
:100020000C943E000C943E000C943E000C943E0058
:100030000C943E000C943E000C943E000C943E0048
:100040000C943E000C943E000C943E000C943E0038
:100050000C943E000C943E000C943E000C943E0028
:100060000C943E000C943E0011241FBECFEFD8E04C
:10007000DEBFCDBF0E945C000C9461000C940000B8
:100080008FEF87B980E288B980E090E0089588B169
:10009000806388B983E294EF0197F1F700C0000014
:1000A00088B18F7C88B983E294EF0197F1F700C0A3
:1000B000000080E090E008950E9440000E94470008
:0600C000FDCFF894FFCF14
:00000001FF
