:100000000C9434000C9446000C9446000C9446006A
:100010000C9446000C9446000C9446000C94460048
:100020000C9446000C9446000C9446000C94460038
:100030000C9446000C9446000C94AB000C944600C3
:100040000C9446000C9446000C9446000C94460018
:100050000C9446000C9446000C9446000C94460008
:100060000C9446000C94460011241FBECFEFD8E03C
:10007000DEBFCDBF11E0A0E0B1E001C01D92AE3007
:10008000B107E1F70E9450010C9487010C94000025
:100090009093C5008093C40086E08093C20088E9F5
:1000A0008093C10008959091C00095FFFCCF80938C
:1000B000C6000895CF93DF93EC018991882319F04E
:1000C0000E945300FACFDF91CF910895CF93809192
:1000D000C00087FFFCCFC091C600CD3011F48AE08C
:1000E00001C08C2F0E9453008C2FCF910895EF9266
:1000F000FF920F931F93CF93DF938C01C0E0D0E06A
:1001000078010E946600F80181938F018D3019F407
:10011000F701108204C02196C436D10589F7DF911A
:10012000CF911F910F91FF90EF9008958FEF87B9B6
:1001300018B814B88CE090E00E94480082E084BDBA
:1001400093E095BD16BC9FE097BD80936E007894B8
:1001500080E090E008951F920F920FB60F92112445
:100160002F933F938F939F9380910C0190910D015A
:100170000A9744F010920D0110920C0110920A019E
:100180001092090180910C0190910D018A30910526
:100190000CF5189B0AC02091090130910A012F5FCC
:1001A0003F4F30930A01209309018930910591F462
:1001B0002091090130910A01263031053CF021E0FF
:1001C00030E0309308012093070104C01092080129
:1001D00010920701019690930D0180930C019F915D
:1001E0008F913F912F910F900FBE0F901F901895F8
:1001F000809107019091080182309105ECF42091E3
:100200000B01220F330B822B80930B0182E090E0D5
:100210009093080180930701809105019091060158
:10022000019769F4809103019091040101969093E4
:1002300004018093030103C081E090E0089580E011
:1002400090E0089580910B01813631F481E090E0D7
:10025000909306018093050180E090E00895CF938C
:10026000DF93D0910101C09102018D2F0E945300B4
:100270008C2F0E945300D13659F4C13661F488B1F5
:1002800098E0892788B9109206011092050103C0F1
:1002900081E090E002C080E090E0DF91CF9108958E
:1002A0002FE38DE093E0215080409040E1F700C0C3
:1002B00000000E9496000E94F800892BE1F78091CF
:1002C000050190910601892B19F40E942201F3CFB8
:1002D0008091030190910401089769F780910001D2
:1002E000823020F00E942F011092000180910001C5
:1002F000E82FF0E0EF5FFE4F90910B01908310929A
:100300000401109203018F5F80930001D4CFF89411
:02031000FFCF1D
:00000001FF
