:100000000C9434000C943E000C943E000C943E0082
:100010000C943E000C943E000C943E000C943E0068
:100020000C943E000C943E000C943E000C943E0058
:100030000C943E000C943E000C943E000C943E0048
:100040000C943E000C943E000C948E000C943E00E8
:100050000C943E000C943E000C943E000C943E0028
:100060000C943E000C943E0011241FBECFEFD8E04C
:10007000DEBFCDBF0E94C6000C94D0000C940000DF
:100080009093C5008093C40086E08093C20088E905
:100090008093C10008959091C00095FFFCCF80939C
:1000A000C6000895CF93DF93EC018991882319F05E
:1000B0000E944B00FACFDF91CF910895CF938091AA
:1000C000C00087FFFCCFC091C600CD3011F48AE09C
:1000D00001C08C2F0E944B008C2FCF910895EF927E
:1000E000FF920F931F93CF93DF938C01C0E0D0E07A
:1000F00078010E945E00F80181938F018D3019F420
:10010000F701108204C02196C436D10589F7DF912A
:10011000CF911F910F91FF90EF9008951F920F9232
:100120000FB60F9211242F933F934F935F936F93CA
:100130007F938F939F93AF93BF93CF93EF93FF934F
:100140000E945E00C82F0E944B00CF3669F488B130
:1001500098E0892788B92FE38DE093E02150804013
:100160009040E1F700C00000FF91EF91CF91BF9167
:10017000AF919F918F917F916F915F914F913F913F
:100180002F910F900FBE0F901F9018958FEF87B98A
:1001900088E088B98CE090E00E9440007894FFCF1E
:0401A000F894FFCF01
:00000001FF
